S02B00002F55736572732F7368696E6B696368692F446F63756D656E74732F4D43555870726573736F494445EF
S1130000008000101D010000F5000000F900000050
S1130010FD000000010100000501000000000000D7
S113002000000000000000000000000009010000C2
S11300300D01000000000000110100001501000086
S11300401901000019010000190100001901000044
S11300501901000019010000190100001901000034
S11300601901000019010000190100001901000024
S11300701901000019010000190100001901000014
S11300801901000019010000190100001901000004
S113009019010000190100001901000019010000F4
S11300A019010000190100001901000019010000E4
S11300B019010000190100001901000019010000D4
S11300C0190100001901000019010000D4DE00002C
S11300D0C8000010B4090000D4DE000000C00720EE
S11300E0000000007C0A0010A404000000C00720E7
S11300F000000000704700BF704700BF704700BF9A
S1130100704700BF704700BF704700BF704700BF13
S1130110704700BF704700BF704700BF70B51B48F1
S11301201B4EB0420ED290E830000C3050F8041C44
S113013000230029F5D01A595A5104339942FAD8A8
S1130140B042F0D3134B984213D200F108040733A2
S11301501B1B23F007031030C518002114E9050008
S113016000231AB1195004339A42FBD80834AC4224
S1130170F4D100F047FC084B13B1AFF30080FEE765
S113018003F0E2FD00F084F9F9E700BFCC000000C1
S1130190E4000000F40000000000000010B42AB1E4
S11301A000231C585C5004339A42FAD85DF8044B7F
S11301B0704700BF29B100231A461A5004339942EC
S11301C0FBD87047014801F0C5BA00BF7C0A001093
S11301D038B504460D461822002104F02DFA2046B5
S11301E0294601F0F7FA204638BDFFFFF8B5064668
S11301F00F460D4D06F12C04103001F0ABFA0FCD73
S11302000FC40FCD0FC40FCD0FC495E80300002316
S113021084E80300F760336286F82430B362304622
S113022086F86430B366F8BD30D00000C16602675A
S11302307047704738B50368044601330D4604D14E
S113024024220549054801F095FA63680DB1E26876
S113025000E02269136038BD68D00000E9D00000D6
S113026001210148FFF7E6BF300C001000210148CE
S1130270FFF7E0BF300C0010036810B501330446EB
S113028004D12C220549064801F074FA63691A68FE
S113029063681A4214BF0120002010BD68D000001A
S11302A0E9D0000010B50446064B403003F11802B3
S11302B040F8403C4C330260436001F005FA2046AC
S11302C010BD00BF30D50000A0F14000EAE7A0F166
S11302D04400E7E710B5044600F092FB204610BD49
S11302E008B5154801F048F9D621134801F03AF948
S11302F0D8B11C21104801F035F9C0B10E4801F005
S11303003BF9D7210C4801F02DF990B100210A489E
S113031001F02AF9094B01211870074801F024F96A
S1130320054801F02BF9002008BD012008BD02207A
S113033008BD032008BD00BFA40A00102C0C001047
S113034010B5144C00212046FFF774FF2046FFF738
S113035093FF114C01462046FFF76CFF2046FFF740
S11303608BFF01460D48FFF765FF4FF416410C481B
S113037001F05CF90B4A0C490C48FFF757FF0C4994
S11303800C4801F079F8BDE810400B490B4801F026
S1130390DFB800BF8C0A0010AC0A0010300C00104B
S11303A0600C00106D02000061020000B80B001028
S11303B020A10700C40A0010A0860100A40A0010AE
S11303C010B5FFF78DFF2B4C032844D8DFE800F06D
S11303D00231373D01212848FFF72CFF21782748B7
S11303E021F07F03DBB29A001A4401F040031A445F
S11303F002EB820201F020031A4402EB820201F0B4
S113040010031A4402EB820201F008031A4402EBBF
S1130410820201F004031A4402EB820201F0020397
S11304201A4402EB820201F001031A4404F06CF94D
S113043018E011480021FFF7FDFE114810E00E48B6
S11304400021FFF7F7FE0F480AE00B480021FFF7F1
S1130450F1FE0D4804E008480021FFF7EBFE0B48CD
S113046004F052F9002323704FF07E50BDE8104091
S113047001F078BA2C0C0010480C001001D10000D7
S11304800FD1000017D100001FD1000027D10000B8
S113049008B5FFF755FFFFF793FFFCE710B50446D7
S11304A0FFF700FF204600F0ABFA204610BDA0F194
S11304B04000F3E7A0F14400F0E7FFFF38B51F491F
S11304C01F48FFF785FE1F4C1F492048FFF780FE99
S11304D01F4D20492048FFF77BFE00231F4A204977
S11304E0204601F059F82A461E49204600F086FAB3
S11304F021461D4C1D48FFF779FE1D4A1D49204623
S113050000F098FF20461C4C2A461C4900F076FA5D
S113051010220021204604F08FF808220021201D1B
S1130520227304F089F8164A1649174801F000F8B6
S113053016491748FFF74CFE38BD00BF08C0092014
S1130540300C0010600C001007C00920AC0A001029
S1130550780A001006C009208C0A001010C0092077
S11305600FC00920A5020000C40A0010B80B001037
S113057005C0092004C00920A80B0010ED130000D9
S113058001C0092000C00920A40A00104CC00920A1
S1130590480C001000B599B072B63B49684601F0AA
S11305A019F906A8394901F015F90CA8384901F0E0
S11305B011F912A8374901F00DF932E00699039BAD
S11305C0019A01311A6059D00C990A9B079A01319A
S11305D01A604DD01299109B0D9A01311A6041D0C6
S11305E0159B139A96201A6001F0C8F9009B0133F9
S11305F032D00699049B019A01311A6026D00C99D5
S1130600099B079A01311A601AD012990F9B0D9A0F
S113061001311A600ED0169B139A96201A6001F0CD
S1130620ADF9009B0133C9D11B481C49242201F0B8
S1130630A1F8C3E718481949242201F09BF8EAE716
S113064015481649242201F095F8DEE712481349AB
S1130650242201F08FF8D2E70F481049242201F038
S113066089F8C6E70C480D49242201F083F8B7E75E
S113067009480A49242201F07DF8ABE706480749F6
S1130680242201F077F89FE732C0092034C0092002
S113069035C0092037C0092030D1000048D10000FE
S11306A00C4A30B4936894681A46B4F1805F0CD253
S11306B0094A03F1C40553F8044BAB4242F8044F12
S11306C0F9D1044B4FF080529A60103042F8201058
S11306D030BC704700ED00E0FCFFFF0F036870B50D
S11306E01B690021012204469847431C05460ED08D
S11306F0236820461B690021022298472368064686
S113070029461B69204600229847304670BD70BDBB
S1130710084A094B10B4026003F58071002453F8B1
S1130720042B824208BF43F8044C8B42F7D15DF896
S1130730044B7047D0D10000B80C00100A4A0B4B90
S113074010B503F5807104460260002053F8042BB1
S1130750944208BF43F8040C8B42F7D1204600F0C2
S11307604FF9204610BD00BFD0D10000B80C0010D6
S113077002480349034A00F047BD00BF140F0010AC
S113078002C0092003C00920F0B50E4685B03649E1
S1130790054604F0A5FB20B9344B1B6863B105B0D2
S11307A0F0BD2846324904F09BFB78B92F4B1B68F7
S11307B043B1012005B0F0BD0190FFF7D9FF0198C6
S11307C005B0F0BDFFF7D4FF0120E8E7284629492A
S11307D004F086FB10B3284B002402E00134402CC3
S11307E021D053F8040F0028F8D12B783A2B33D0BA
S11307F0294602A800F044FE02A800F093FE90B13E
S113080002A800F077FE88B102A800F07DFE03463E
S11308104BB11A4AE01C42F82430C0E7134B1B6862
S1130820B3B10220BBE74FF0FF30B8E702A800F0F5
S113083055FE05460028F6D0036802A89F6800F01C
S11308404BFE26F4803201462846B8470346DFE7CC
S1130850FFF78EFF0220A2E72846094902AA04F006
S1130860CDFA029BD4E700BFB0D10000B80D001050
S1130870C0D10000B8D10000B40C0010B80C0010B6
S1130880F8D10000022808B50BDD084BC21E53F84E
S11308902200002143F8221028B103685B689847BE
S11308A008BD002008BD4FF0FF3008BDB80C001093
S11308B0022870B50C4616460FDC0E4B1B680BB9AC
S11308C0FFF756FFA51936B114F8011B0A4800F0CA
S11308D0EBFBAC42F8D1304670BD084B033853F8FB
S11308E0200018B103681B68984770BD4FF0FF30B3
S11308F070BD00BFB80D0010140F0010B80C00102C
S1130900022810B50C4609DC0D4B1B688BB10D4851
S113091000F074FB01232070184610BD0A4B033805
S113092053F8200040B103689B6898470346184673
S113093010BDFFF71DFFEAE74FF0FF33ECE700BF00
S1130940B80D0010140F0010B80C0010022808B5E0
S113095008DD074B033853F8200028B10368DB682F
S1130960984708BD012008BD4FF0FF3008BD00BF07
S1130970B80C0010022808B508DD074B033853F8FB
S1130980200028B103681B69984708BD002008BDF2
S11309904FF0FF3008BD00BFB80C0010022808B5A6
S11309A004D84FF400534B60002008BD02F000FB54
S11309B0092303604FF0FF3008BD00BF0A4C08B59F
S11309C023680546986802F0FDFB2368D86802F0A6
S11309D0F9FB00F04BFF20B905B9FEE7FFF7DAFD9C
S11309E0FBE700F09FFFF7E7F804001008B50120CB
S11309F0FFF7E4FF002104F02BB900BF002070478B
S1130A0003F046BA2B4A202370B4C2F8A031D2F8BE
S1130A10A031980645D4274B022100250124AA20A1
S1130A2055220B26C3F80411C3F8A8511946C3F87C
S1130A30AC51C3F80C41C3F88460C3F88C00C3F80C
S1130A408C20C3F88040C3F88C00C3F88C20D1F804
S1130A508830184A5B01FAD50321AA205523C2F82D
S1130A608010C2F88C001146C2F88C30D1F888305E
S1130A70104A13F0407FF9D00F4900230520C2F833
S1130A800801C2F8C410C2F8C831136870BC23F45A
S1130A90704323F03A0343F4405343F03A031360A2
S1130AA07047D2F8A0315906B5D4D2F8A03159060E
S1130AB0F7D5B0E700C00F40DE87280408B5154A13
S1130AC09368C3F34203012B1ED0022B19D1124B9E
S1130AD0596F01310AD0D3F88010986F086093F8E9
S1130AE0A61019B9516821F001015160186F0A4B21
S1130AF048B193F8A6302BB10021084A13689847EF
S1130B0008BD08BD08BD08BD034A106F0028F9D010
S1130B101946F2E700800940C00D0010BC0D00101A
S1130B2070B50368294CA34249D041DD284CA34247
S1130B302AD004F58044A34244D1264C08263ABB6B
S1130B4001290BD04568244AC5EBC50502EBC50451
S1130B5094F8355094F83620EA4214D1012202FA6E
S1130B6001F5D1F1010138BF002102FA01F15C68FD
S1130B7024EA05045C6003685B68194203D1B2404F
S1130B80164BC3F8802070BD154C0726002AD7D019
S1130B90012505FA01F176B2304605FA06F65A68DF
S1130BA00A435A602146FFF77BFD0C4B1E6070BD63
S1130BB0A4F58044A34205D10A4C0526BFE70A4C9C
S1130BC00626BCE700242646B9E700BF0000014022
S1130BD000800940510C0000C00D001000E100E04D
S1130BE0BD0A0000ED0B0000BD0C000008B5154A5D
S1130BF09368C3F34203012B1DD0022B18D1124B6F
S1130C005968013109D019699868086093F8361059
S1130C1019B9516821F00101516018680A4B48B1B3
S1130C2093F836302BB10021084A1368984708BD61
S1130C3008BD08BD08BD044A10680028F9D019464B
S1130C40F2E700BF00C00040C00D0010BC0D001052
S1130C5008B5174A9368C3F34203012B21D0022B32
S1130C601CD1144BD3F8AC1001310BD0D3F8B8100D
S1130C70D3F8B000086093F8DE1019B9516821F078
S1130C8001015160D3F8A8000A4B48B193F8DE3053
S1130C902BB10021084A1368984708BD08BD08BD58
S1130CA008BD044AD2F8A8000028F8D01946F1E794
S1130CB000C00940C00D0010BC0D001008B5154A55
S1130CC09368C3F34203012B1DD0022B18D1124B9E
S1130CD0D96B013109D0996C186C086093F86E10C7
S1130CE019B9516821F001015160986B0A4B48B160
S1130CF093F86E302BB10021084A1368984708BD59
S1130D0008BD08BD08BD044A906B0028F9D01946F7
S1130D10F2E700BF00000140C00D0010BC0D001040
S1130D202DE9F04F0368884A8DB0934209908B46B1
S1130D3000F3F080854A934200F0F78040F3D780B7
S1130D40834A934200F09F8002F5804293420CD183
S1130D50804AD2F8AC1121F44021C2F8AC11D2F887
S1130D60AC1141F48021C2F8AC117B494FEA0B125B
S1130D7009680891089CB1FBF2F102FB114289B2A7
S1130D800491002A00F0B1806100A20001230294C2
S1130D9000240B910A9201930F4603920693CDF817
S1130DA01CB05E460594DDF81CA001994FF00008C4
S1130DB0D146CDB2DA46C346002F79DB0399DDF87C
S1130DC004E0B1FBF9F464090134C4F34F04DE44D4
S1130DD0002C66D10124B8F1000F67D104FB0EF09A
S1130DE0029AC000B2FBF0F00130CAEB500002F0EE
S1130DF0DBF8B04206DA504564D00646CDF81480DC
S1130E00049406950BF1010B5FFA8BF84545D14428
S1130E10D2D8019CD3460F2C4FF000035DD0029A28
S1130E200899019C0A440B99013402920194039A93
S1130E300F440A9C07992244594403920791002BBA
S1130E40B1D0069B059A099C42EA03102368C0B2FC
S1130E50197B049C41F08001C4F30722099C197397
S1130E60236804991A7123685FFA81FB83F800B040
S1130E70236883F8280023681A7B02F07F021A7320
S1130E800DB0BDE8F08F334AD2F8AC1121F44031F3
S1130E90C2F8AC11D2F8AC1141F48031C2F8AC11F3
S1130EA063E7B8F1000F99D0012C97D8022495E795
S1130EB0B7FBF9F42409DDF804E00134C4F34F046A
S1130EC0DE4485E70494019CD3460F2C0695CDF8A7
S1130ED0148056464FF00103A1D10599069A099C46
S1130EE041EA0210C0B22368B2E71020B0E7A2F5CD
S1130EF0804293427FF439AF164AD2F8A81121F008
S1130F00C001C2F8A811D2F8A81141F04001C2F8FA
S1130F10A8112AE79B221148114900F02BFC099CD7
S1130F200A4A236893427FF409AF0A4AD2F8A81107
S1130F3021F44071C2F8A811D2F8A81141F48071CB
S1130F40C2F8A81111E700BF00C009400000014029
S1130F500080094000C00F40C8000010A8D2000063
S1130F60C4D20000F8B55D1E012D07460C46164696
S1130F7004D915481549FB2200F0FCFB053C032C61
S1130F801CD8042E14D8013EF6B2032E0DD8104BF3
S1130F90082253F826301B01DBB244EA85041443CB
S1130FA023433A68DBB21373F8BD00231A46F4E70F
S1130FB008480649FE2200F0DDFBE4E70648034941
S1130FC0FC2200F0D7FBDCE72CD30000C4D20000E5
S1130FD02CD2000078D3000054D30000436810B42E
S1130FE00448054CC3EBC30344F8332001605DF8A7
S1130FF0044B7047BC0D0010C00D001000B5026812
S1131000137DDB07FCD543680949C3EBC30301EB3C
S1131010C303596810780131C0B207D05969043349
S11310205B680B60536843F0010353605DF804FB95
S1131030C00D001038B54368184AC3EBC303DB0086
S1131040D1180446C869013011D018331A445368C2
S1131050151D013316D06A696B6812681A4204D1EF
S11310602368187DC0F3801038BD002038BD236884
S11310701B7D9B060CD491F834000F288CBF0020F4
S1131080012038BD064807492C2200F073FBE2E733
S1131090002381F83430012038BD00BFC00D00109A
S11310A030D10000FCD3000038B504460D4620467C
S11310B0FFF7C0FF0028FAD02368EDB21D70626804
S11310C0054BC2EBC20203EBC20393F83420013296
S11310D083F8342038BD00BFC00D00102DE9F04F57
S11310E00446454D006883B0A8420E469046994692
S11310F043D06568002301932A46DFF808A1EF0076
S1131100C2EBC202781B4FF0000E0AEBC0000AEBE0
S1131110C20C4FF0FF33C3614360714672462046F0
S11311208CF835E0FFF7FCFC16B903B0BDE8F08F8E
S11311303249404600F0CEFB31498346484600F030
S1131140C9FBB21E012A38D9012EEED1B8F1FF3FF6
S1131150EBD02949226807208B45107215D1019BD9
S11311609BB11B7C019A254943F04003404613740C
S113117003B0BDE8F04F00F07BBB037C656803F06F
S11311803F03037462680190B7E77D1B0AEBC50057
S113119041460430002200F03FFB62680125C2EBA7
S11311A0C2020AEBC20320462A46002183F83550C6
S11311B003B0BDE8F04FFFF7B3BCB9F1FF3F09D06E
S11311C00D4A90420CD0781B0AEBC00049461C30F3
S11311D000F0EEFA032EA8D1B8F1FF3FB9D1A4E78D
S11311E0019B002BEFD01A7C484642F080021A740F
S11311F0034900F03DFBEDE70000014008D2000088
S1131200E4D40000C00D00102DE9F0470F46054658
S113121008466149164600F06BFB604904463046B7
S113122000F066FB0146204600F042FB411C0446E8
S113123000F0AB805A4B2860984200F0838053D969
S1131240584B984276D003F58043984206D1564BCA
S1131250D3F8C42042F00072C3F8C4204FF001094F
S113126084F808902B684FF00008C3F804802846DF
S11312704FF41651FFF754FD42464B4628460821C9
S1131280FFF770FE3846444900F0F2FA304643490D
S113129000F0EEFA7A1C03D03846414600F036FDE1
S11312A0731C03D03046002100F030FD3C4B9C42BF
S11312B050D025D93B4B9C4264D003F580439C42DB
S11312C04BD103236B603949C3EBC3034FF0FF34A5
S11312D0284601EBC305224623466C60EC610021DD
S11312E0BDE8F047FFF7FABEA3F580439842B5D1B5
S11312F02D4BD3F8C42042F00802C3F8C420ADE754
S1131300A3F580439C4228D1284E4FF0FF3400219E
S113131069602246234628467460F461FFF7DEFEC6
S1131320234B012429461C6022480822BDE8F047CB
S113133003F0A8B81C4BD3F8C42042F08072C3F861
S1131340C4208BE7184BD3F8C42042F01002C3F832
S1131350C42083E701236B60B5E76B681349C3EBD3
S1131360C3034FF0FF3601EBC3073246334628462A
S113137000217E60FE61FFF7B1FE0F4B9C42CFD08F
S1131380BDE8F08702236B609DE70C480C495C22A2
S113139000F0F0F92C6061E778D400003CD2000042
S11313A0000001400080094000C00F40C00D001043
S11313B0B80D0010140F001000C0004068D40000E5
S11313C0C4D2000001EB410100EBC1000830011D53
S11313D008B54B6923B1406808B10431984708BD8A
S11313E04368002BFBD0984708BD00BF38B5064BB7
S11313F0044644F8043B0546204600F007FB20461B
S113140000F01CFB284638BD10D5000038B5084B49
S1131410044644F8043B0546204600F0F7FA20460B
S113142000F00CFB2846FFF7EBFA284638BD00BF56
S113143010D500000E4B70B5002480E81800064655
S1131440846000F1240300F1FC0543F8184C43F8D0
S1131450044C1833AB42F8D1341D204600F070FB25
S113146020460449324600F0C3FA304670BD00BF3E
S113147010D50000C5130000043000F0FDBA00BF11
S113148038B50023036043600A7804462F2A01D04C
S1131490204638BD4A78002AFAD0481C20604A7891
S11314A02F2A14D0B2B18D1C194600E052B1256028
S11314B02A782B462F2A01F1010105F10105F5D106
S11314C00133236000F010FE6060204638BD1946E9
S11314D00346F5E71146F5E70068704710B5044682
S11314E0406828B100F01EFE012801D1606810BDDB
S11314F0002010BD406808B528B100F013FED0F1FB
S1131500010038BF002008BD10B50446406830B162
S113151000F008FE18B9606808B1043810BD002056
S113152010BD00BF4068003018BF0120704700BFE5
S113153038B5054D002380E82800044600F022FC5D
S1131540024B20461C6038BDA0860100A00E00108E
S113155010B54160044600F0A1FC014B1C6010BDB5
S1131560A00E001000F0BCBC11B9012100F0A2BC17
S1131570002100F09FBC00BF00F06CBC00F07CBCFC
S113158000F05CB8A0F14000FFF7FABF00F05AB8D1
S1131590A0F14000FFF7FABF38B504461D4600F03D
S11315A027F8294604F1400000F0B2F8054B204624
S11315B003F1080103F120025433216022646364BF
S11315C038BD00BF28D5000001EB410100EBC1008C
S11315D00830011D08B54B6923B1406808B10431D6
S11315E0984708BD4368002BFBD0984708BD00BF4F
S11315F070B504460B4E0023251D4FF41650E063CE
S113160063602846A360E36023626362A363266089
S1131610FFF7FAFD284622460349FFF7DFFC204680
S113162070BD00BF20D50000C915000038B50446C0
S11316300D460430FFF774FBE56338BD0430FFF753
S1131640DDBC00BF10B504300C46FFF72DFD20466D
S113165010BD00BF00207047F8B58E18B1420F4688
S113166005460FD00C4601E0A64209D02B68284657
S11316705B6A14F8011B98470130F5D1E01BF8BDF3
S1131680F01BF8BD0020F8BDF8B58E18B1420F4626
S113169005460FD00C4603E004F8010BA64207D020
S11316A02B6828469B6A9847431CF5D1E01BF8BD7C
S11316B0F01BF8BD0020F8BD0020704700207047E3
S11316C0002070470020704710B5074B044603F113
S11316D008023C3380E80C00406901F0B1FC20466C
S11316E000F074FC204610BD88D50000A0F1040071
S11316F0FFF7EABF10B50446FFF7E6FF2046FFF701
S11317007FF9204610BD00BFA0F10400FFF7F2BF2F
S113171010B584B0044600F089FC0B4B002203F1A1
S113172008013C3384E80A00626101A822460749A3
S113173003F03EFB064901A801F080FE6061FFF75B
S113174059F9204604B010BD88D50000F8D1000036
S1131750D0D5000038B50025056045608560044695
S113176000F03CF9E06000F033F9A56060602046C9
S113177038BD00BF10B40C46134601462246024849
S11317805DF8044B00F002B8D4D500000FB400B5E6
S1131790064A83B004AB126853F8041BD0681A4697
S11317A0019307F0A5FB0120FFF708F9F8040010E6
S11317B038B50D46044600F043FA013509D02046F9
S11317C0002100F059FA20460321BDE8384000F01A
S11317D04FBA38BD38B50D46044600F031FA01352C
S11317E00FD0236801330DD02369626820461A6044
S11317F0012100F041FA20460221BDE8384000F002
S113180037BA38BD024803492422FFF7B3FFEBE798
S113181030D1000048D1000070B50D46164604468C
S113182000F00EFA013514D02368013312D066B9E2
S1131830236962681A602046012100F01DFA2046DF
S11318400221BDE8704000F013BAE36862681A60D0
S1131850F1E770BD034804492422FFF78BFF002EF3
S1131860E6D0F2E730D1000048D1000000F066B8BD
S1131870431C10B5044618D00B68581C04D10FE063
S113188051F80C3F5A1C0BD09C42F9D12046896870
S113189000F014FA20460221BDE8104000F036BAE8
S11318A00248BDE81040FFF771BF10BD08D6000024
S11318B0884208B50AD0431C07D0013106D0044839
S11318C0FFF764FF4FF0FF3008BD084608BD00BFB6
S11318D01CD600000B685A1C04D107E051F80C3FD9
S11318E05A1C03D08342F9D14868704718467047A0
S11318F008B5431C0CD00B685A1C04D109E051F8FC
S11319000C3F5A1C05D09842F9D14868411C00D0BC
S113191008BD0348FFF73AFF4FF0FF30F8E700BF78
S113192030D6000030B585B018246D4620462946CF
S1131930ABBE0446204605B030BD00BF024B18685C
S113194000F00100704700BFF0ED00E038B5054637
S113195000F016FB044600F013FB001BA842FAD368
S113196038BD00BF08B5044901F018F801F066F964
S1131970BDE80840FFF7EABF002474494FF47A73C6
S113198003FB00F0FFF7E2BF38B503680446DB68E9
S1131990984763685B6883B122681D6853689847F9
S11319A0281A002862680CDC506811688368536048
S11319B00029F0D040688847EBE723689B68984784
S11319C038BD236852681B691068984738BD00BF4A
S11319D008B503685B68984708BD00BF00487047B6
S11319E084D600000148FFF7CFBF00BF84D60000B3
S11319F010B4044B44680448196040F824205DF88E
S1131A00044B7047AC0E0010B00E00104168026821
S1131A10084B002043F821001069196820F00100E8
S1131A20106131B95B6823B9034B4FF00072C3F8FE
S1131A3080207047B00E001000E100E003680C4AFB
S1131A4093420CD002F58042934207D1094BD3F85C
S1131A50C42022F48042C3F8C42070477047054B69
S1131A60D3F8C42022F40052C3F8C420704700BF46
S1131A700040044000C00F4070B42B4B05689D42E9
S1131A804CD003F580439D4239D0042301FB03F37A
S1131A90264A274C1068B0FBF3F0A4FB00348608F8
S1131AA0C4F30F14B44236D20134A4B2611C01EB66
S1131AB0810303EB83034942162201E0013AF1D08A
S1131AC098420B44FAD11B4B296803EBC2004068CF
S1131AD053F8323002051B0403F4702302F4E002CD
S1131AE01A432B68C4F3090442F48042144343F0BC
S1131AF001032B6001206C61296070BC70470E4BA0
S1131B00D3F8A831C3F30173013B022BBDD80B4AB0
S1131B1052F82330BAE7002070BC7047064BD3F864
S1131B20A831C3F38163EFE700400440C80000100C
S1131B30ABAAAAAA8CD6000000C00F4038D8000077
S1131B40F8B504460E46084629491546FFF7D0FE67
S1131B50284907462846FFF7CBFE01463846FFF7DB
S1131B60A7FE431C20603BD0234A904230D002F5AC
S1131B708042904221D030461D49FFF779FE284625
S1131B801C49FFF775FE23681B4A93421DD002F5DA
S1131B908042934201D1012262601A6819680022CE
S1131BA041F00101196020469A6014491A61FFF757
S1131BB063FF134B02221A60F8BD124BD3F8C42002
S1131BC042F48042C3F8C420D5E700226260E4E70F
S1131BD00C4BD3F8C42042F40052C3F8C420CAE723
S1131BE009480A4940F22B12FFF7C4FD2068BBE7FD
S1131BF044D7000080D7000000400440A0860100C4
S1131C0000C0034000C00F40BCD70000D0D7000084
S1131C10431C10B5044608D02046002100F04EF8BD
S1131C2004F01F040120A04010BD034803491522FD
S1131C30FFF7A0FDF0E700BF44D8000058D800002B
S1131C4038B504464B1C0D4621600FD00846FFF7FB
S1131C50DFFF25F01F0505F1180105F11C0205F150
S1131C6014036060A560E1602261636138BD00BF58
S1131C70006800F04BB800BF38B503680446013370
S1131C800D4610D045B1012D05D1A36862681968CD
S1131C900A431A6038BD38BDA36861681A6822EA2D
S1131CA001021A6038BD034803492C22FFF762FD84
S1131CB0E8E700BF30D1000058D8000038B5431C15
S1131CC004460D4617D004F16040A0F51C2000F036
S1131CD00F035B0003229A409D4003099B0003F11C
S1131CE0804303F53033196821EA02021A601A6846
S1131CF015431D6038BD034803491522FFF73AFD1B
S1131D00E1E700BF44D80000C0D8000038B5431C48
S1131D1004460D462CD004F16040A0F51C2000F0D0
S1131D201F04C5F3800202FA04F443099B0003F183
S1131D30804303F53033996E21EA04019966996E64
S1131D400C439C669AB900F00F035B0003229A408F
S1131D5005FA03F30009800000F1804000F53030FB
S1131D60016C21EA02020264026C1343036438BD6D
S1131D70024803492022FFF7FDFCCCE744D80000C9
S1131D80C0D80000F8B506460D4608462949144651
S1131D90FFF7AEFD284907462046FFF7A9FD014697
S1131DA03846FFF785FD421C034630603AD0234A8B
S1131DB093422FD002F58822934223D0A2F5042225
S1131DC0934216D01E4A1F4912683C27120AA1FBEF
S1131DD00202402692095A6128461A6115499F61F8
S1131DE01E60FFF745FD20461349BDE8F840FFF7A4
S1131DF03FBD02F56022D2F8C41041F08001C2F860
S1131E00C410DFE7104AD2F8C41041F08061C2F870
S1131E10C410D7E70C4AD2F8C41041F40021C2F828
S1131E20C410CFE709480A496322FFF7A3FC3368CB
S1131E30BDE700BF24D90000DCD9000000C0054084
S1131E40C8000010632D3E0500C00F4060D900009B
S1131E5074D9000001683C2324228B61054B0A607D
S1131E6001E0013B02D00A681207FAD52023486832
S1131E708B617047A186010002681023082113605A
S1131E80054B916101E0013B04D0106810F0100093
S1131E90F9D1704701207047A1860100044B490025
S1131EA01A6803689208B2FBF1F15961196170472D
S1131EB0C800001071B1016804238B6108238B6191
S1131EC0064B01E0013B02D00A681207FAD5886884
S1131ED0C0B27047016804230B60EFE7A1860100DC
S1131EE00068C9B2082281600A4B826101E0013BAB
S1131EF002D002681207FAD54368282B08D005DD02
S1131F00402B05D0B82B03D000207047182BFBD1F1
S1131F1001207047A1860100134A38B513680BBB32
S1131F2012490124D1F8C4501460114A114845F4EF
S1131F300005C1F8C4501367036801F1437101F54A
S1131F40F45103319B08A1FB03039B0C013B0221C9
S1131F5051600420D36008495460FEF7A1FB074B8D
S1131F6010221A6038BD00BFB80E001000C00F4028
S1131F7000400940C8000010E519000000E100E03D
S1131F8008B5044B1B680BB9FFF7C6FF024B9868F2
S1131F9008BD00BFB80E001000400940034B986113
S1131FA05A6942F001025A61704700BF004009407B
S1131FB0024B5A6922F001025A61704700400940FD
S1131FC0014B01221A6070470040094010B5074BCD
S1131FD0044603F108023433226040F8043F00F061
S1131FE039F82046FEF794FB204610BD18DA0000AD
S1131FF0A0F10400FFF7EABF094B10B503F1080292
S113200004463433226040F8043F00F023F82046AD
S1132010FEF77EFB2046FEF7F3FC204610BD00BF12
S113202018DA0000A0F10400FFF7E6BF074B10B573
S11320300022044640F8043B00F042F8044B2046DA
S113204003F10802343384E80C0010BDD0D1000041
S113205018DA0000094A8368026053B1084B1A6811
S1132060824201D106E01A4653688342FBD1436899
S11320705360704742681A60704700BF60DA00001E
S1132080BC0E00100C4A836810B50446026053B1BC
S11320900A4B1A68904201D10AE01A4653689C42DE
S11320A0FBD1636853602046FEF7AAFC204610BDAE
S11320B042681A60F7E700BF60DA0000BC0E001047
S11320C0074B10B400240273816080E8180019B132
S11320D0044B1A68186042605DF8044B704700BFF7
S11320E060DA0000BC0E00100D4B70B51C6806468B
S11320F00D4614B912E0646884B1A36831462A46D7
S11321001846002BF7D002F0F7FF0028F3D1A0689F
S113211002F0C4FFA842EED1204670BD002070BD7D
S1132120BC0E0010007B704781F0004102E000BF4C
S113213083F0004330B54FEA41044FEA430594EA83
S1132140050F08BF90EA020F1FBF54EA000C55EABE
S1132150020C7FEA645C7FEA655C00F0E2804FEA8F
S11321605454D4EB5555B8BF6D420CDD2C4480EA71
S1132170020281EA030382EA000083EA010180EAA1
S1132180020281EA0303362D88BF30BD11F0004FEF
S11321904FEA01314FF4801C4CEA113102D0404225
S11321A061EB410113F0004F4FEA03334CEA133360
S11321B002D0524263EB430394EA050F00F0A78078
S11321C0A4F10104D5F1200E0DDB02FA0EFC22FA73
S11321D005F2801841F1000103FA0EF2801843FA67
S11321E005F359410EE0A5F120050EF1200E012A58
S11321F003FA0EFC28BF4CF0020C43FA05F3C01896
S113220051EBE37101F0004507D54FF0000EDCF10E
S1132210000C7EEB00006EEB0101B1F5801F1BD3B7
S1132220B1F5001F0CD349085FEA30004FEA3C0CBB
S113223004F101044FEA445212F5800F80F09A80B1
S1132240BCF1004F08BF5FEA500C50F1000041EBB5
S1132250045141EA050130BD5FEA4C0C404141EBB9
S1132260010111F4801FA4F10104E9D191F0000FE0
S113227004BF01460020B1FA81F308BF2033A3F163
S11322800B03B3F120020CDA0C3208DD02F1140C5A
S1132290C2F10C0201FA0CF021FA02F10CE002F195
S11322A01402D8BFC2F1200C01FA02F120FA0CFC8E
S11322B0DCBF41EA0C019040E41AA2BF01EB0451D7
S11322C0294330BD6FEA04041F3C1CDA0C340EDCD5
S11322D004F11404C4F1200220FA04F001FA02F318
S11322E040EA030021FA04F345EA030130BDC4F1D6
S11322F00C04C4F1200220FA02F001FA04F340EACB
S11323000300294630BD21FA04F0294630BD94F07B
S1132310000F83F4801306BF81F480110134013D62
S11323204EE77FEA645C18BF7FEA655C29D094EAD3
S1132330050F08BF90EA020F05D054EA000C04BF51
S11323401946104630BD91EA030F1EBF002100203C
S113235030BD5FEA545C05D14000494128BF41F0DB
S1132360004130BD14F580043CBF01F5801130BD3F
S113237001F0004545F0FE4141F470014FF00000CA
S113238030BD7FEA645C1ABF194610467FEA655C7B
S11323901CBF0B46024650EA013406BF52EA03351D
S11323A091EA030F41F4002130BD00BF90F0000F0B
S11323B004BF0021704730B54FF4806404F1320447
S11323C04FF000054FF0000150E700BF90F0000F00
S11323D004BF0021704730B54FF4806404F1320427
S11323E010F0004548BF40424FF000013EE700BFF7
S11323F042004FEAE2014FEA31014FEA02701FBF87
S113240012F07F4393F07F4F81F06051704792F058
S1132410000F14BF93F07F4F704730B54FF46074D2
S113242001F0004521F0004120E700BF50EA01021D
S113243008BF704730B54FF000050AE050EA0102CA
S113244008BF704730B511F0004502D5404261EB3A
S113245041014FF4806404F132045FEA915C3FF47B
S1132460DCAE4FF003025FEADC0C18BF03325FEA14
S1132470DC0C18BF033202EBDC02C2F1200300FAC9
S113248003FC20FA02F001FA03FE40EA0E0021FAEE
S113249002F11444C1E600BF70B54FF0FF0C4CF4D8
S11324A0E06C1CEA11541DBF1CEA135594EA0C0F8E
S11324B095EA0C0F00F0DEF82C4481EA030621EAC9
S11324C04C5123EA4C5350EA013518BF52EA033504
S11324D041F4801143F4801338D0A0FB02CE4FF0B6
S11324E00005E1FB02E506F00042E0FB03E54FF0E6
S11324F00006E1FB03569CF0000F18BF4EF0010EDE
S1132500A4F1FF04B6F5007F64F5407404D25FEAD9
S11325104E0E6D4146EB060642EAC62141EA55518C
S11325204FEAC52040EA5E504FEACE2EB4F1FD0CCE
S113253088BFBCF5E06F1ED8BEF1004F08BF5FEA4C
S1132540500E50F1000041EB045170BD06F00046FE
S113255046EA010140EA020081EA0301B4EB5C04AB
S1132560C2BFD4EB0C0541EA045170BD41F48011A3
S11325704FF0000E013C00F3AB8014F1360FDEBFC8
S1132580002001F0004170BDC4F10004203C35DAA4
S11325900C341BDC04F11404C4F1200500FA05F327
S11325A020FA04F001FA05F240EA020001F00042C8
S11325B021F0004110EBD37021FA04F642EB06013E
S11325C05EEA430E08BF20EAD37070BDC4F10C0468
S11325D0C4F1200500FA04F320FA05F001FA04F22C
S11325E040EA020001F0004110EBD37041F1000118
S11325F05EEA430E08BF20EAD37070BDC4F1200523
S113260000FA05F24EEA020E20FA04F301FA05F28A
S113261043EA020321FA04F001F0004121FA04F232
S113262020EA020000EBD3705EEA430E08BF20EA02
S1132630D37070BD94F0000F0FD101F0004640003C
S113264041EB010111F4801F08BF013CF7D041EABE
S1132650060195F0000F18BF704703F000465200C2
S113266043EB030313F4801F08BF013DF7D043EA93
S11326700603704794EA0C0F0CEA135518BF95EA49
S11326800C0F0CD050EA410618BF52EA4306D1D1D0
S113269081EA030101F000414FF0000070BD50EAEF
S11326A0410606BF1046194652EA430619D094EA79
S11326B00C0F02D150EA013613D195EA0C0F05D163
S11326C052EA03361CBF104619460AD181EA0301B7
S11326D001F0004141F0FE4141F470014FF000006F
S11326E070BD41F0FE4141F4780170BD70B54FF00A
S11326F0FF0C4CF4E06C1CEA11541DBF1CEA13558A
S113270094EA0C0F95EA0C0F00F0A7F8A4EB05046B
S113271081EA030E52EA03354FEA013100F0888062
S11327204FEA03334FF0805545EA131343EA12632B
S11327304FEA022245EA111545EA10654FEA0026E0
S11327400EF000419D4208BF964244F1FD0404F599
S1132750407402D25B084FEA3202B61A65EB0305F5
S11327605B084FEA32024FF480104FF4002CB6EBB2
S1132770020E75EB030E22BFB61A754640EA0C0032
S11327805B084FEA3202B6EB020E75EB030E22BF72
S1132790B61A754640EA5C005B084FEA3202B6EBB3
S11327A0020E75EB030E22BFB61A754640EA9C0072
S11327B05B084FEA3202B6EB020E75EB030E22BF42
S11327C0B61A754640EADC0055EA060E18D04FEA00
S11327D0051545EA16754FEA06164FEAC30343EAA0
S11327E052734FEAC2025FEA1C1CC0D111F4801F6D
S11327F00BD141EA00014FF000004FF0004CB6E766
S113280011F4801F04BF01430020B4F1FD0C88BF04
S1132810BCF5E06F3FF6AFAEB5EB030C04BFB6EB0F
S1132820020C5FEA500C50F1000041EB045170BD02
S11328300EF0004E4EEA113114EB5C04C2BFD4EB2F
S11328400C0541EA045170BD41F480114FF0000EB3
S1132850013C90E645EA060E8DE60CEA135594EA2F
S11328600C0F08BF95EA0C0F3FF43BAF94EA0C0F32
S11328700AD150EA01347FF434AF95EA0C0F7FF4A7
S113288025AF104619462CE795EA0C0F06D152EAFB
S113289003353FF4FDAE1046194622E750EA4106DF
S11328A018BF52EA43067FF4C5AE50EA41047FF4F0
S11328B00DAF52EA43057FF4EBAE12E74A0011D2A2
S11328C012F5001211D20DD56FF47873B3EB625286
S11328D00ED44FEAC12343F0004343EA505323FA92
S11328E002F070474FF00000704750EA013002D107
S11328F04FF0FF3070474FF0000070474FEA41023D
S1132900B2F1E04324BFB3F5001CDCF1FE5C0DD949
S113291001F0004C4FEAC0024CEA5070B2F1004F93
S113292040EB830008BF20F00100704711F0804F96
S113293021D113F13872BCBF01F00040704741F45B
S113294080114FEA5252C2F11802C2F1200C10FA5F
S11329500CF320FA02F018BF40F001004FEAC12343
S11329604FEAD32303FA0CFC40EA0C0023FA02F3E7
S11329704FEA4303CCE77FEA625307D150EA0133BD
S11329801EBF4FF0FE4040F44000704701F000408D
S113299040F0FE4040F40000704700BF4FF0FF0CD1
S11329A01CEAD0521EBF1CEAD15392EA0C0F93EAE0
S11329B00C0F6FD01A4480EA010C400218BF5FEA82
S11329C041211ED04FF0006343EA501043EA5111F5
S11329D0A0FB01310CF00040B1F5000F3EBF4900EF
S11329E041EAD3715B0040EA010062F17F02FD2AF3
S11329F01DD8B3F1004F40EBC25008BF20F00100D6
S1132A00704790F0000F0CF0004C08BF49024CEAEC
S1132A10502040EA51207F3AC2BFD2F1FF0340EA7E
S1132A20C250704740F400004FF00003013A5DDCEF
S1132A3012F1190FDCBF00F000407047C2F1000230
S1132A40410021FA02F1C2F1200200FA02FC5FEA1D
S1132A50310040F1000053EA4C0308BF20EADC7067
S1132A60704792F0000F00F0004C02BF400010F4D9
S1132A70000F013AF9D040EA0C0093F0000F01F086
S1132A80004C02BF490011F4000F013BF9D041EAA8
S1132A900C018FE70CEAD15392EA0C0F18BF93EAAA
S1132AA00C0F0AD030F0004C18BF31F0004CD8D1D4
S1132AB080EA010000F00040704790F0000F17BF5B
S1132AC090F0004F084691F0000F91F0004F14D0A1
S1132AD092EA0C0F01D142020FD193EA0C0F03D1F9
S1132AE04B0218BF084608D180EA010000F00040FC
S1132AF040F0FE4040F40000704740F0FE4040F4D7
S1132B00400070474FF0FF0C1CEAD0521EBF1CEA75
S1132B10D15392EA0C0F93EA0C0F69D0A2EB030293
S1132B2080EA010C49024FEA402037D04FF080532D
S1132B3043EA111143EA10130CF000408B4238BFF2
S1132B405B0042F17D024FF4000C8B4224BF5B1A00
S1132B5040EA0C00B3EB510F24BFA3EB510340EA4E
S1132B605C00B3EB910F24BFA3EB910340EA9C00FC
S1132B70B3EBD10F24BFA3EBD10340EADC001B016C
S1132B8018BF5FEA1C1CE0D1FD2A3FF650AF8B4210
S1132B9040EBC25008BF20F0010070470CF0004C1D
S1132BA04CEA50207F32C2BFD2F1FF0340EAC25048
S1132BB0704740F400004FF00003013A37E792F009
S1132BC0000F00F0004C02BF400010F4000F013A67
S1132BD0F9D040EA0C0093F0000F01F0004C02BF62
S1132BE0490011F4000F013BF9D041EA0C0195E7CB
S1132BF00CEAD15392EA0C0F08D142027FF47DAF64
S1132C0093EA0C0F7FF470AF084676E793EA0C0F53
S1132C1004D14B023FF44CAF08466EE730F0004C51
S1132C2018BF31F0004CCAD130F000427FF45CAFE1
S1132C3031F000437FF43CAF5FE700BF4FEA40024E
S1132C40B2F1FE4F0FD34FF09E03B3EB12620DD9D6
S1132C504FEA002343F0004310F0004F23FA02F040
S1132C6018BF404270474FF00000704712F1610FE7
S1132C7001D1420205D110F0004008BF6FF00040BE
S1132C8070474FF00000704753B94AB9002908BF94
S1132C9000281CBF4FF0FF314FF0FF3000F082B925
S1132CA0ADF1080C6DE904CE00F006F8DDF804E09F
S1132CB0DDE9022304B070472DE9F04F8C460C4641
S1132CC00546099E002B4FD18A4217466BD9B2FAAA
S1132CD082FEBEF1000F0BD0CEF1200520FA05F5DF
S1132CE001FA0EF345EA030C02FA0EF700FA0EF5A8
S1132CF0390CBCFBF1F0BAB201FB10C300FB02F8C3
S1132D004FEA154C4CEA0344A04509D9E41900F1F3
S1132D10FF3380F02881A04540F2258102383C44ED
S1132D20C8EB0404B4FBF1F301FB134C03FB02F204
S1132D30ACB244EA0C418A4209D9C91903F1FF34FF
S1132D4080F00F818A4240F20C81023B39448A1A96
S1132D5043EA00400021002E63D022FA0EF2002341
S1132D6086E80C00BDE8F08F8B4207D9002E56D0C0
S1132D70002186E811000846BDE8F08FB3FA83F11C
S1132D80002940F09380A34202D3824200F2FE80E5
S1132D90851A64EB03039C460120002E41D086E88B
S1132DA02010BDE8F08F12B90127B7FBF2F7B7FA8C
S1132DB087FEBEF1000F36D1E41B4FEA17481FFA15
S1132DC087F90121B4FBF8F308FB134409FB03F270
S1132DD04FEA154C4CEA0444A24207D9E41903F122
S1132DE0FF3002D2A24200F2D3800346A41AB4FBFD
S1132DF0F8F008FB104809FB00F9ACB244EA0842B9
S1132E00914507D9D21900F1FF3402D2914500F25D
S1132E10BA802046C9EB020240EA03409BE73146F0
S1132E203046BDE8F08F07FA0EF7CEF1200C24FAF5
S1132E300CF34FEA1748B3FBF8FA1FFA87F908FBBB
S1132E401A3520FA0CFC04FA0EF40AFB09FB4CEACE
S1132E50040C4FEA1C4242EA05439B4500FA0EF576
S1132E600AD9DB190AF1FF3280F08B809B4540F2CE
S1132E708880AAF1020A3B44CBEB0303B3FBF8F0CE
S1132E8008FB103300FB09F41FFA8CFC4CEA0343E3
S1132E909C4207D9DB1900F1FF326ED29C426CD9F7
S1132EA002383B441C1B40EA0A418BE7C1F1200E67
S1132EB08B4022FA0EFC4CEA030C24FA0EF74FEA7C
S1132EC01C49B7FBF9FA1FFA8CF309FB1A7720FAAD
S1132ED00EF88C400AFB03F548EA04044FEA144850
S1132EE048EA0747BD4202FA01F200FA01FB09D998
S1132EF017EB0C070AF1FF3041D2BD423FD9AAF1CA
S1132F00020A67447F1BB7FBF9F509FB157705FB3C
S1132F1003F3A4B244EA0747BB4208D917EB0C07F2
S1132F2005F1FF3027D2BB4225D9023D674445EA6B
S1132F300A40A0FB0289FF1A4F4545464C4614D36C
S1132F4029D066B3BBEB050367EB040707FA0EFE53
S1132F50CB40CF404EEA030386E888000021BDE859
S1132F60F08F2346F3E61846DAE6B8EB020569EB80
S1132F700C040138E5E70546D9E7104692E7824696
S1132F80C0E7924678E702383A4443E7084604E744
S1132F90023B3C442AE7C345E7D33C46D1E73146EC
S1132FA0BDE8F08F704700BF0028B8BF40427047AB
S1132FB0014B1868704700BFF804001000293DD089
S1132FC070B505460C4608B1836B7BB3B4F90C307D
S1132FD00BB9002070BD2146284600F039F8E36A99
S1132FE0064633B1E169284698470028B8BF4FF038
S1132FF0FF36A3891B061CD4216B41B104F14003A5
S1133000994202D0284600F06FFA00232363616CD2
S113301021B1284600F068FA0023636400F0C4F983
S11330200023A38100F0C2F9304670BD00F0B6F968
S1133030CCE72169284600F057FADDE70020704705
S1133040024B01461868FFF7B9BF00BFF80400102F
S1133050B1F90C302DE9F0419AB20D4611078046C2
S11330603CD46A6843F40063002AAB8173DDAC6A24
S1133070002C4BD09BB203F48052002192B2D8F8BA
S11330800060C8F80010002A69D02A6D5F0705D5D2
S113309069682B6B521A0BB1EB6BD21A0023E969E6
S11330A04046A047441C3CD0B5F90C30296923F4B0
S11330B000630022AB81DB0485E8060049D4296B58
S11330C0C8F8006011B305F14003994202D04046AC
S11330D000F00AFA00202863BDE8F0812E69AEB141
S11330E090072C680CBF6B6900232E60A41BAB6097
S11330F00AE0234632466F6AE9694046B847002829
S1133100A4EB0004064404DD002CF2DC0020BDE83E
S1133110F081AB894FF0FF3043F04003AB81BDE851
S1133120F081D8F800201D2AF3D81A4BD34003F0BD
S1133130010383F00104002BEBD0B5F90C302969AD
S113314023F400632960D9046C60AB81B7D5002AED
S1133150B5D12865B3E7EA6B002A88DCD6E70123FA
S1133160E9694046A047431C024602D0AB89AC6AD9
S11331708CE7D8F80030002BF8D01D2B01D0162B8B
S113318002D1C8F80060C1E7AB8943F04003AB81CA
S1133190BDE8F0810100402010B5044682B008B1BA
S11331A0836B53B1B1F90C0008B902B010BD2046CD
S11331B002B0BDE81040FFF74BBF019100F0EEF8FC
S11331C00199EFE720B1054B01461868FFF7E4BF0A
S11331D0034B0449186800F08FBD00BFF8040010C9
S11331E068DA000099310000014900F085BD00BF94
S11331F0BD2F00002DE9F04F074635487D680024B7
S113320007F53B7204230321F863C7F8E412C7F8F7
S1133210E822C7F8E04283B02C606C60AC606C6656
S1133220EC812C616C61AC61AB81214605F15C00E1
S1133230082201F001FADFF89CB0BE68DFF898A01C
S1133240DFF89890DFF8988001230922C5F820B0B0
S1133250C5F824A0C5F82890C5F82C80ED61214656
S1133260F381B28106F15C0034607460B46074660A
S113327034617461B4610822019301F0DDF9FD68E1
S113328012200222F661C6F820B0C6F824A0C6F8BF
S11332902890C6F82C802146A881EA812C606C60B5
S11332A0AC606C662C616C61AC6105F15C00082259
S11332B001F0C2F9019BED61C5F820B0C5F824A066
S11332C0C5F82890C5F82C80BB6303B0BDE8F08F27
S11332D0E9310000554E00007D4E0000B94E00005B
S11332E0D94E000070B568234D1E03FB05F50E464C
S11332F005F1740100F0D4FD044640B100210C3006
S1133300666005F168022160A06001F095F920462D
S113331070BD00BF204B70B51D680646AB6B13B97A
S11333202846FFF767FF05F538756B68AC68013B05
S113333005D521E0013B5A1C04F168041CD0B4F902
S11333400C20002AF6D14FF6FF7200250123E281FA
S1133350A38165662560A560656025616561A561D9
S11333602946082204F15C0001F066F92046256331
S113337065636564A56470BD2B680BB11D46D4E715
S113338004213046FFF7AEFF286008B10546CCE7BC
S11333900C23336070BD00BF68DA0000836B03B197
S11333A07047FFF727BF00BF704700BF704700BFDB
S11333B01346F0B583B00F4601AA1946064606F037
S11333C079FEF0B105463046FFF7A4FF0446C0B1CC
S11333D039464FF4DB73019A304601F07FF9002837
S11333E01BDB124B124F1349134AE362EB05E081D6
S11333F0A581E46127626162A26205D4204603B01C
S1133400F0BD002003B0F0BD304602230022214667
S113341000F052F9204603B0F0BD0025FFF7C4FFC9
S1133420A581FFF7C3FF2846E9E700BFD94E000096
S1133430554E00007D4E0000B94E0000024B0A4676
S113344001461868FFF7B4BFF8040010F8B50C463D
S1133450224F064601F03EF9BB685D6825F003057E
S1133460291B01F6EF7121F47F6121F00F01A1F511
S11334708054B4F5805F07DB0021304601F0D6FBB1
S1133480BB682B44984204D0304601F025F9002053
S1133490F8BD6142304601F0C9FB01300DD0104B3C
S11334A0BA6819682D1B45F001053046091B5560A3
S11334B0196001F011F90120F8BD0021304601F036
S11334C0B5FBBA68831A0F2BDEDD064C0449246869
S11334D043F00103001B53600860D5E7FC040010AF
S11334E0CC0E001008090010002945D02DE9F04148
S11334F00D46804601F0EEF855F8047C6A49A5F1C2
S1133500080427F00103E2188E685068B24220F0E4
S1133510030062D0FE0750600BD455F8087C01F11B
S1133520080EE41BA5683B4475456FD0E768EF605F
S1133530BD6015186D68ED0742D543F00102626065
S1133540E350B3F5007F18D2DB0848689D100122D0
S1133550013351F8337002FA05F501EBC302284335
S1133560083AE260A760486041F83340FC60404696
S1133570BDE8F04101F0B0B870475A0A042A53D8A4
S11335809A0902F139077F0002F1380501EB87003F
S113359051F827200838904243494DD0516821F012
S11335A003018B4202D292689042F7D1D068E06066
S11335B0A2608460D4604046BDE8F04101F08CB85C
S11335C095683A4F0344BD423FD0D06843F00102AE
S11335D0E86085606260E350B3E7FF07034407D403
S11335E055F8085C641BE268A0682B44C2609060D4
S11335F02F4A43F001001268606093428C60B6D396
S11336002C4B40461968FFF721FFB0E711184968B1
S1133610C90744D491680344D26843F00100CA60E6
S113362091606060E350A2E7142A17D802F15C07A6
S11336307F0002F15B05A9E7AA104B68012505FA92
S113364002F213434B600246B1E743F001024C61BE
S11336500C61E560A5606260E35088E7542A06D8EF
S11336601A0B02F16F077F0002F16E058EE7B2F5C7
S1133670AA7F06D8DA0B02F178077F0002F17705FA
S113368084E740F25450824206D89A0C02F17D0736
S11336907F0002F17C0579E7FE277E2576E743F07B
S11336A001026260E35062E7FC04001004050010AC
S11336B004090010C80E001000F000B82DE9F04F06
S11336C00C4691B091461E46054610B1836B002B03
S11336D074D0A38903F48473B3F5847F76D0D4F8CB
S11336E02880B8F1000F00F04481012E4BD0022E47
S11336F008D03EB116232B604FF0FF37384611B087
S1133700BDE8F08F4FF0000A57462369002B00F004
S11337101B8140F61A03B4F90C2091B20B4043B953
S113372049055ED4954B984500F0FA8042F4006256
S1133730A28121462846FFF72FFD07460028DBD14A
S113374033464A46E1692846C0470130D4D0216B4C
S113375041B104F14003994202D02846FFF7C4FE68
S113376000232363A389226923F4026300212260D6
S1133770A381616004F15C00082200F05DFF38461B
S113378011B0BDE8F08F21462846FFF705FDA38957
S113379003F4805292B2002A00F0B880276D5E07CD
S11337A059D4180740F1B080226823690AB1D21AAB
S11337B01744B9444FF0010A0026A7E7FFF7EEFDCE
S11337C0A38903F48473B3F5847F88D12146284602
S11337D0FFF7E2FC83E7A3894FF480621343A381DC
S11337E0E264002E40D1CB46BAF1000F4BD1A3893D
S11337F0DA0440F1AE80206D6368216BC71A00299A
S113380000F0B080E26BBF1A1F442069A36B1B1A3F
S1133810FF1A1344BB453CDBFA185A4539D9C7EBA8
S11338200B073844DB1B84E8090041B104F1400371
S1133830994202D02846FFF757FE00232363A38949
S113384004F15C0023F02003A3810822002100F08E
S1133850F3FE002752E76268236BBF1A002B53D094
S1133860E26B2369BF1AA4E701AAB4F90E10284633
S113387000F086F800287FF45CAF059B09EB030B8E
S1133880BAF1000FB3D0216B636800296AD0E26BF0
S1133890BAE7E76C00237F4207EA0B073A46E1697F
S11338A02846C04701303FF444AF2369216B2360AD
S11338B00023636041B104F14003994202D02846D9
S11338C0FFF712FE00232363A389BBEB070B23F04E
S11338D02003A38110D02146284601F01DF90028B9
S11338E07FF427AF626893453FF623AF2368CBEBA1
S11338F002025B446260236004F15C000822002140
S113390000F09AFE0027F9E6236952E73346E1699D
S11339102846C047431C07463FF4EEAEA3893EE762
S1133920B4F90E100029FFF601AF01AA284600F0F1
S113393027F830B9029B03F47043B3F5004F3FF40A
S11339404AAFB4F90C20F1E62146284600F054FAB7
S1133950DFE601235246E1692846C047431C7FF451
S11339604BAFE6E6226820690021121ABF1A1344FD
S113397050E71D232B604FF0FF37BFE6B94E000020
S113398038B50B46074C05461146184600232360FC
S1133990FDF704F8431C00D038BD2368002BFBD08E
S11339A02B6038BD1C0F00109368002B00F0AB8017
S11339B02DE9F04F8B8985B00C4619070290164605
S11339C028D5226932B303F002081FFA88F035685B
S11339D078B34FF00009C846DFF8D0A2B8F1000F61
S11339E000F08B80D04543464A4628BF5346E169E0
S11339F00298676AB847002840F3A580B3688144F9
S1133A001B1AC0EB0808B360002BE7D1002005B0F7
S1133A10BDE8F08F2146029805F018FB002840F01D
S1133A203C81A389356803F002081FFA88F0002856
S1133A30CFD113F0010940F090804F460196002F3A
S1133A4056D09A05D4F808805FD54745C246C0F0E1
S1133A50BF8013F4906F00F0BD8062692068216913
S1133A6002EB4208C1EB000A08EBD8780AF1010026
S1133A704FEA680838444045424684BF804642467F
S1133A805B0540F1F2801146029800F009FA834682
S1133A90002800F005815246216900F0F3FCA38957
S1133AA023F4906343F08003A381CAEB08030BEB78
S1133AB00A00C4F81480BA46B846C4F810B02060AE
S1133AC0A3605246494600F053FDA0682368C8EB42
S1133AD00000A060384653442360019A81449368EF
S1133AE03F1A1B1A9360002B90D0A389002FA8D1F2
S1133AF0D5F800906F680835A1E7D5F80090D5F89F
S1133B00048008356AE700207047206823699842DA
S1133B1003D86269974280F08380B84528BFB846CD
S1133B204946424600F024FDA3682268C8EB03031B
S1133B304244A3602260002B48D121460298FFF73B
S1133B402BFB002842D0B4F90C3043F040034FF073
S1133B50FF30A38105B0BDE8F08F804682468146E0
S1133B600190B9F1000F29D0019B002B4BD0C8451F
S1133B70C34628BFCB46206823695F4698426269E2
S1133B8003D9A36813449B455CDC934524DB1346AB
S1133B90676A5246E1690298B847071ED3DDB8EB5D
S1133BA0070827D0B368BA44DB1BC7EB0909B36025
S1133BB0002B3FF42BAFB9F1000FD5D10023D5F87A
S1133BC000A0D5F8049001930835CAE7404684E77D
S1133BD0B846BA46206874E75A46514600F0C8FC15
S1133BE0A2682368CBEB02025B44B8EB0708A2602F
S1133BF02360D7D121460298FFF7CEFA0028A2D13C
S1133C00CDF80480CEE74A460A21504600F0F4FB82
S1133C1000283DD001300123CAEB00080193A6E738
S1133C206FF00043BB4228BF3B4693FBF2F3E169CC
S1133C3002FB03F302984A46666AB04700283FF73E
S1133C404CAF80E71A465146039300F091FC22687A
S1133C50039B21461A4422600298FFF79DFA039BB6
S1133C6000287FF470AF1F4699E7029800F060FDCA
S1133C70834600287FF419AF029D21692846FFF787
S1133C8033FCB4F90C300C2223F080032A605CE787
S1133C90012309F10108019369E74FF0FF30B6E60B
S1133CA0029A0C231360B4F90C304EE700FCFF7F3A
S1133CB02DE9F04110F538771AD0884600267D6842
S1133CC0BC68013D0ED4A389013D012B06D9B4F98A
S1133CD00E30013302D02046C04706436B1C04F16A
S1133CE06804F0D13F68002FE9D13046BDE8F08187
S1133CF03E463046BDE8F0812DE9F84310F53876AC
S1133D001ED0884607464FF000097568B468013D27
S1133D1010D4A389013D012B08D9B4F90E30013325
S1133D2004D021463846C04749EA00096B1C04F117
S1133D306804EED13668002EE7D14846BDE8F88322
S1133D40B1464846BDE8F88370B50F4E0F4D761B5B
S1133D50B61018BF002405D0013455F8043B984729
S1133D60A642F9D10A4E0B4D0AF09EF8761BB61006
S1133D7018BF002406D0013455F8043B9847A642E6
S1133D80F9D170BD70BD00BFB4DE0000B4DE000028
S1133D90C0DE0000B4DE000070B50E46B1F90E10AE
S1133DA090B0002914461D4614DB01AAFFF7E8FD74
S1133DB000280FDB029A4FF4806302F47042A2F5EC
S1133DC00052B2FA82F24FF4006052092A60236072
S1133DD010B070BDB289002002F0800292B2286057
S1133DE01AB14023236010B070BD10464FF48063B5
S1133DF0236010B070BD00BF8A890B46920706D5B8
S1133E0001F1430201211A601A6159617047F0B54A
S1133E1083B001AB6A460C460546FFF7BDFF009927
S1133E200646284600F03CF8B4F90C30D0B19DE8C1
S1133E300600124F43F08003EF63A38120602061EA
S1133E4061611AB93343A38103B0F0BD2846B4F9C4
S1133E500E1006F069F9B4F90C300028F2D043F0E2
S1133E600103EFE79A05EFD404F1430243F00203A0
S1133E700121A381226022616161E5E7E93100004B
S1133E80024B0146186800F00BB800BFF80400109C
S1133E90024B01461868FFF727BB00BFF804001067
S1133EA02DE9F04F01F10B05162D83B0064640F2C3
S1133EB0A08035F0070500F1C080A94200F2BD8062
S1133EC000F008FCB5F5FC7FC0F090826B0A00F0AE
S1133ED0BB80042B00F27781A80900F1390E4FEA68
S1133EE04E013830BE4F07EB81014C680839A142BE
S1133EF007D1AEE0002A80F2AE80E468A14200F06F
S1133F00A880636823F003035A1B0F2AF2DDB44927
S1133F103C6901F1080E744500F0A881636823F040
S1133F2003035A1B0F2A00F38E81002AC1F814E000
S1133F30C1F810E080F29380B3F5007F80F05C81DB
S1133F40DB084A684FEAA3094FF0010C013351F82A
S1133F5033800CFA09F901EBC30C49EA0202ACF113
S1133F60080CC4F80CC0C4F808804A6041F8334017
S1133F70C8F80C40831001249C4094427CD814421D
S1133F8006D120F003006400144200F10400FAD0CA
S1133F9007EBC009CC468046DCF80C108C4507D1F1
S1133FA066E1002A80F27481C9688C4500F0608162
S1133FB04B6823F003035A1B0F2AF2DD0C46CB682F
S1133FC054F808CF45F00108C1F804800D4442F0CC
S1133FD00101CCF80C303046C3F808C07D613D6166
S1133FE0C5F80CE0C5F808E06960AA5000F074FB5D
S1133FF01FE0102921D800F06DFB102506230220B4
S1134000774F07EB83035C68A3F10802944200F046
S113401038816368E16823F0030323445A68A56880
S113402042F00102E96030468D605A6000F054FBB2
S11340300834204603B0BDE8F08F002420460C234A
S1134040336003B0BDE8F08F80214FF0400E3F2075
S113405048E770465BE723445A68E168DFE7234496
S11340605A68304642F001025A60083400F034FBCA
S1134070204603B0BDE8F08FBC68636823F00308F2
S1134080A84504D3C5EB08030F2B00F38C80554BD4
S1134090DFF860911A68D9F800302A44013304EB40
S11340A0080A00F0608102F580520F3222F47F6228
S11340B022F00F0211463046019200F0B7FDB0F134
S11340C0FF3F8346019A00F05881824500F2FC804C
S11340D0454BDA4519681144196000F05381D9F849
S11340E00000DFF810E101301BBFCAEB0B0A51449A
S11340F0CEF800B019601BF0070100F01781C1F180
S11341000800C1F58051834408315A44C2F30B02BC
S1134110C2EB010949463046019300F087FD431C78
S1134120019B00F03F81CBEB00024A4442F00102C4
S11341301968BC424944C7F808B01960CBF8042098
S1134140DFF8A49016D0B8F10F0F40F2FD8062683A
S1134150A8F10C0323F0070302F00102E0184FF06A
S1134160050E1A430F2B6260C0F804E0C0F808E0A3
S113417000F21C811D4BBC681A68914288BF19600B
S11341801B4B1A689142626888BF196022F00302CF
S11341909542A2EB050301D80F2B04DC304600F056
S11341A09BFA002445E745F0010243F0010325444E
S11341B062603046BD6008346B6000F08DFA2046C2
S11341C003B0BDE8F08F142B71D9542B00F2A480F6
S11341D0280B00F16F0E4FEA4E016E3082E600BFED
S11341E0FC040010C80E0010CC0E0010C40E001009
S11341F0C00E0010080900105A0A042A5ED9142AB5
S113420000F2B38002F15C0149005B3207EB810CE0
S113421057F82110ACF1080C8C45DFF8D88100F078
S113422088804A6822F00302934202D289688C454E
S1134230F7D1D1F80CC07A68C4F80CC0A160CCF8EE
S11342400840CC6096E645F0010742F0010325449E
S1134250676030464D610D61C5F80CE0C5F808E0B3
S11342606B60AA50083400F037FAE2E64A6881E647
S113427008F1010818F0030F0CF1080C7FF48CAE60
S113428030E0DC68A34208BF02303FF440AEC0E631
S11342900C460B445A68C96854F8085F42F001029E
S11342A05A603046E9608D6000F016FAC1E603F109
S11342B05C0E03F15B004FEA4E0113E69A0902F12A
S11342C0390149003832A1E7BC424A4B3FF400AF00
S11342D09C68626822F003025AE759F80839994544
S11342E040F0828010F0030F00F1FF30F5D17B68BD
S11342F023EA04037B6064009C423FF6BDAE002CBD
S11343003FF4BAAE1C4240467FF442AE64001C4205
S113431000F10400FAD03BE6B3F5AA7F18D8E80B05
S113432000F1780E4FEA4E017730DBE54FF480510F
S1134330EBE60121D8F80430921001FA02F21A4394
S1134340C8F80420614677E70123CBF8043025E759
S113435040F25452934220D8A80C00F17D0E4FEA4B
S11343604E017C30BEE51032A4E6542A26D81A0B3E
S113437002F16F0149006E3248E7BC68626822F0BE
S1134380030205E7CAF30B0000287FF4A8AE4244F9
S1134390BB6842F001025A60ECE6FE214FF07F0E4A
S11343A07E209FE501224FF00009C1E604F10801D7
S11343B03046FFF799F8D9F80010DBE6B2F5AA7F8A
S11343C005D8DA0B02F17801490077321EE740F292
S11343D054518A4205D89A0C02F17D0149007C327D
S11343E014E7FE217E2211E77B6884E7E808431C7A
S11343F05B0005E6FC040010830770B4CDB23DD029
S1134400531E02B30278AA421ED0421C04E0D3B168
S11344100478013BAC4217D012F0030F104602F1AE
S11344200102F4D1032B11D853B30278AA420BD062
S11344300344421C02E00178A94205D0934210468D
S113444002F10102F7D1002070BC704704460E024D
S113445006F47F462E4346EA06462268204672400A
S1134460A2F1013121EA020212F0803F04F10404B6
S1134470DBD1043B032B2046EFD8D5E71346D1E725
S11344801846E1E7844641EA000313F0030349D1E7
S1134490403A23D30B6803604B6843608B688360A6
S11344A0CB68C3600B6903614B6943618B698361AA
S11344B0CB69C3610B6A03624B6A43628B6A836292
S11344C0CB6AC3620B6B03634B6B43638B6B83637A
S11344D0CB6BC36340304031403ADBD230320BD334
S11344E00B6803604B6843608B688360CB68C36070
S11344F010301031103AF3D20C3205D351F8043B8A
S113450040F8043B043AF9D2043208D0D2071CBF65
S113451011F8013B00F8013B01D30B88038060468E
S1134520704700BF082A13D38B07B1D010F00303E0
S1134530AED0C3F10403D21ADB071CBF11F8013B50
S113454000F8013BA4D331F8023B20F8023B9FE77B
S1134550043AD9D3013A11F8013B00F8013BF9D2EE
S11345600B7803704B7843708B7883706046704788
S11345708842F0B50DD98B1898420AD28118002AC6
S113458051D09A1A13F8014D934201F8014DF9D113
S1134590F0BD0F2A48D941EA00039B0746D11546CE
S11345A000F1100401F1100353F8106C103D44F8AD
S11345B0106C53F80C6C0F2D44F80C6C53F8086C09
S11345C004F1100444F8186C53F8046C03F110035C
S11345D044F8146CE8D8A2F1100323F00F0302F09E
S11345E00F0E1033BEF1030F1944034421D90E46B4
S11345F074461D1F56F8047B043C032C45F8047FC5
S1134600F8D8AEF1040424F0030404342344214410
S113461002F0030262B1013B0A4411F8014B8A42E1
S113462003F8014FF9D1F0BD0346F3E70346F2E77F
S1134630F0BD7246EEE700BF70B4840746D0541E46
S1134640002A41D0CDB2034602E0621EE4B3144610
S113465003F8015B9A07F8D1032C2ED9CDB245EAB1
S113466005250F2C45EA054519D9264603F1100204
S1134670103E0F2E42F8105C42F80C5C42F8085CC5
S113468042F8045C02F11002F2D8A4F1100222F004
S11346900F0204F00F041032032C13440DD91E46EC
S11346A02246043A032A46F8045BFAD8221F22F071
S11346B003020432134404F003042CB1C9B21C44B1
S11346C003F8011BA342FBD170BC70471446034698
S11346D0C2E700BF704700BF704700BF70B50D460A
S11346E0084C114606461A46284600232360FCF768
S11346F04BF8431C00D070BD2368002BFBD0336003
S113470070BD00BF1C0F00100FB410B5074B82B072
S113471004AC54F8042B186823468168019403F010
S11347201BF802B0BDE8104004B07047F804001054
S11347302DE9F04F174683B0002900F08F800D4615
S1134740814607F10B04FFF7C5FF55F804EC162C5E
S11347502EF00306A5F108083CD810221446A742FF
S11347603DD8964242DAC64B08EB06009968884267
S1134770416800F0D78021F0010303445B68DB0744
S11347804CD51EF0010F00F09D8039464846FFF7D6
S113479087FB074600283AD055F8043CA0F10802EC
S11347A023F0010343449A4200F03E81321F242A3D
S11347B000F22B81132A00F2FF8003462A46116877
S11347C019605168596092689A6029464846FEF714
S11347D08BFE1CE024F00704002C2246BFDA0C23D5
S11347E00020C9F8003003B0BDE8F08F2F46331B1A
S11347F00F2BD8F804201DD802F00102324308EB35
S11348000601C8F804204B6843F001034B60484696
S1134810FFF762FF384603B0BDE8F08F21F00301D3
S11348203144914220DBC36882682F46D3600E4630
S11348309A60DCE702F0010208EB0401144343F040
S11348400102C8F804400B444A605A68083142F037
S113485001025A604846FEF747FED8E7114603B006
S1134860BDE8F04FFFF71CBB1EF0010F8DD155F8CA
S1134870083CC3EB080ADAF8043023F0030C01EB1C
S11348800C0E964526DB5746C3688168321FCB6001
S1134890996057F8081FDAF80C30242ACB60996025
S11348A000F2C980132A40F292802B681B2ACAF8AE
S11348B008306B68CAF80C3000F2CD8008350AF174
S11348C0100385E055F8083CC3EB080ADAF8043015
S11348D023F0030C06EB0C039342FFF656AF574646
S11348E0DAF80C1057F8080F321F242AC1608860C8
S11348F000F2AA80132A40F2A58029681B2ACAF86C
S113490008106968CAF80C1000F2BC8008350AF176
S1134910100229681E4611606968D0465160AB6870
S1134920936064E721F0030B04F11000B344834562
S113493057DA1EF0010F7FF428AF55F8081CC1EBBD
S1134940080ADAF8041021F0030CE3445845C1DCEA
S11349505746DAF80C1057F8080F321F242AC160A2
S1134960886000F2B180132A40F2A28029681B2AD1
S1134970CAF808106968CAF80C1000F2AC8008354F
S11349800AF110022968116069685160A968916090
S1134990C4EB0B020AEB040142F0010299604A6085
S11349A0DAF80430484603F001031C43CAF8044013
S11349B0FFF792FE38462EE72B681B2A03606B68CC
S11349C0436026D800F1080305F10802F7E63B46E8
S11349D02A6876461A606A68D0465A60AA689A605D
S11349E005E7C4EB0B0B08EB04014BF001029960E3
S11349F04A6055F8043C484603F001031C4345F85B
S1134A00044CFFF769FE284605E72946FFF7B0FD89
S1134A10DBE6AB68242A8360EB68C36027D000F12F
S1134A20100305F11002CAE650F8043C2F4623F0A7
S1134A3003031E44DBE6294638467646D046FFF794
S1134A4097FDD4E63A4664E7294638461E46D046E2
S1134A50FFF78EFDCBE6AB68242ACAF81030EB686A
S1134A60CAF814301AD010350AF11803B0E72A69CD
S1134A7000F118030261696905F1180241619EE6BB
S1134A80FC040010A968242ACAF81010E968CAF8BE
S1134A9014100FD010350AF118023AE72A690AF106
S1134AA02003CAF818206A691835CAF81C208FE751
S1134AB03A4667E729690AF12002CAF818106969B9
S1134AC01835CAF81C1024E7294638460193FFF725
S1134AD04FFD019B5CE7A968242ACAF81010E96815
S1134AE0CAF8141003D010350AF118024AE72969EC
S1134AF00AF12002CAF8181069691835CAF81C109E
S1134B0040E700BF838903F00903092B01D000208B
S1134B107047FEF757BB00BFF8B50C46054610B109
S1134B20836B002B47D0B4F90C309AB2970407D4A6
S1134B30626E43F4005322F400526266A3819AB277
S1134B4000219606616033D4500722D5216B61B1F0
S1134B5004F14003994202D02846FEF7C5FCE36BFA
S1134B60002063602063002B3FD12369002B4CD0CD
S1134B70B4F90C70BEB2B30720D122692846226072
S1134B80256A6369E169A8470028606009DD00209F
S1134B90F8BDD1063ED512072AD443F00403A381FD
S1134BA0E3E7A3891BD0002243F04003A3816260A2
S1134BB04FF0FF30F8BDFEF7F1FBB4E7194A0123CB
S1134BC01068A381184906F00906FFF771F8092E49
S1134BD0A781D2D121462846FEF73AFACDE743F021
S1134BE020034FF0FF30A381F8BDA36B2360F8BD11
S1134BF021462846FEF7D0FA0028D9D1B4F90C3062
S1134C00A060A06123F00803C7E721462846FFF708
S1134C10F3F8ADE743F0400309222A604FF0FF3078
S1134C20A381F8BD68DA0000054B000038B5074CD5
S1134C30002305460846236008F0DCF8431C00D036
S1134C4038BD2368002BFBD02B6038BD1C0F00102F
S1134C5000290CBF022200224FF4806300F000B848
S1134C602DE9F043514D83B02D6804460F4690461C
S1134C701E4615B1AB6B002B79D0B8F1020F04D0EE
S1134C80B8F1010F7FD8002E7DDB21462846FEF7C0
S1134C9083FA216B41B104F14003994202D02846C2
S1134CA0FEF722FC00232363B4F90C300022A26136
S1134CB062601A0654D423F44A6323F00303B8F160
S1134CC0020FA38139D001AB6A4621462846FFF77B
S1134CD063F8A3891843A08126B327B3AB6B002BD9
S1134CE04DD0009BB4F90C009E421CBF40F4006000
S1134CF0A081B8F1010F08BF40F0010083B208BFE2
S1134D00A08103F0080080B227602761666118B3B0
S1134D1013F001002FD000207642A661A06003B0FA
S1134D20BDE8F083009E3046FFF7AAF8074668B353
S1134D30A38943F08003A381D0E7002004F1430258
S1134D4043F0020300250121A381A56022602261B2
S1134D50616103B0BDE8F083A06003B0BDE8F083F7
S1134D6021692846FEF7C0FBB4F90C30A3E72846B6
S1134D70FEF714FB81E7A66003B0BDE8F083284684
S1134D80FEF70CFBADE74FF0FF30E2E7DDF80090F3
S1134D90B14506D04846FFF773F8074608B14E46BA
S1134DA0C6E7B4F90C304FF0FF30C7E7F804001041
S1134DB00EB40146F0B54FF6FF779CB021AC54F821
S1134DC0042B0D4823466FF00045029106914FF4E1
S1134DD0027602A900680194ADF81670ADF814606B
S1134DE00495079500F0D6F9029B00221A701CB0B6
S1134DF0BDE8F04003B07047F80400100EB4F0B5FD
S1134E009CB021AC4FF4017254F8045BADF814204B
S1134E100290069000F042F94FF6FF7E06460B49D9
S1134E200B4F2A4623460025086802A901940396DD
S1134E300796ADF816E00A970E95139501F05AFD02
S1134E401CB0BDE8F04003B0704700BFF804001088
S1134E50794E000010B50C46B1F90E1005F080FE35
S1134E60002803DB236D0344236510BDA38923F4C9
S1134E708053A38110BD00BF002070472DE9F0418D
S1134E800C46B1F90C101F46CB051646054607D54E
S1134E90B4F90E100223002205F09EF9B4F90C10A7
S1134EA021F48051A1813B463246B4F90E102846C4
S1134EB0BDE8F04104F0B4B810B50C46B1F90E10D9
S1134EC005F08AF9A389421C0EBF23F4805343F4EE
S1134ED080532065A38110BDB1F90E1004F01AB9F6
S1134EE080EA010C1CF0030F37D110F0030C20F002
S1134EF0030021F0030150F8042B08BF51F8043BD0
S1134F000ED08CF0030C6FF07F434FEACC0C23FAE5
S1134F100CFC51F8043B42EA0C0243EA0C0300BFC8
S1134F20A2F1013C9A4201BF2CEA020C1CF0803F22
S1134F3050F8042B51F8043BF2D04FEA02604FEAD8
S1134F401222012828BFB0EB036F08BF1B0AF4D05C
S1134F5003F0FF03000EC01A704710F0030F0AD0CD
S1134F6010F8012B11F8013B012A28BF9A42F4D012
S1134F70A2EB030070474DF8045D50F8042B01F0D8
S1134F80030521F0030151F8043B022D26D04DD82E
S1134F9022F07F45B5EB132FA2F1013C2CEA020C61
S1134FA00DD11CF0803C08BF51F8043B0AD185EABE
S1134FB00205B5EB036F0CD150F8042BE8E74FEA78
S1134FC013235BE03CF07F4C54D10B784FEA12651D
S1134FD054E04FEA126503F0FF034FE04FEA024545
S1134FE0A2F1013C4FEA15452CEA020CB5EB134F34
S1134FF018D11CF0803C08BF51F8043B07D185EA66
S11350000205B5EB034F09D150F8042BE6E75FEA3C
S11350100C4C2FD10B884FEA12452FE04FEA034383
S11350204FEA12454FEA134328E000BF02F0FF05A0
S1135030B5EB136FA2F1013C2CEA020C0DD11CF06C
S1135040803C08BF51F8043B0AD185EA0205B5EB60
S1135050032F0AD150F8042BE8E74FEA13630DE05D
S113506012F0FF0F06D051F8043B4FEA122523F04B
S11350707F4303E04FF0000020BC704705F0FF02BF
S113508003F0FF00012828BF904204BF2D0A1B0A29
S1135090F4D0A2EB000020BC704700BF20F0030155
S11350A010F00300C0F1000051F8043B00F1040CBF
S11350B04FEACC0C6FF000021CBF22FA0CF213432F
S11350C04FF0010C4CEA0C2C4CEA0C4CA3EB0C02F8
S11350D022EA030212EACC1204BF51F8043B043062
S11350E0F4D0C2F1000102EA0102B2FA82F2C2F182
S11350F01F0200EBD2007047002A3FD040EA0103B0
S113510013F00303F0B425D1032A23D904680D68EE
S1135110AC421FD1043A33D0A4F1013525EA04048A
S113512014F0803F2FD1071D0D1D0DE057F8043BEF
S11351300E68A3F10134B34224EA03040AD1043A09
S11351401ED014F0803F21D1032A2946384605F1A8
S11351500405EBD803780C78013A9C420BD17AB160
S113516014B915E062B173B110F8013F11F8014FA1
S1135170013AA342F6D0181BF0BC704710467047A2
S11351801046F0BC70471846F0BC70470020F3E7A7
S11351902046F1E72DE9F04FC1B00C4609911546C0
S11351A00E930A9005F00AF8036818461793FFF760
S11351B075FFA38916901E0603D52369002B01F001
S11351C05C8100231A46A8460DF1C009DFF860A4EB
S11351D0129319930B9325932493CDF88C901492E6
S11351E0159298F800304446EBB1252B02D11AE011
S11351F0252B03D014F8013F002BF9D1C8EB04058B
S11352008DB1249B259A01332A44072BC9F80080C9
S1135210C9F804502592249300F3328309F1080954
S11352200B9B2B440B932378002B00F0EA814FF067
S1135230FF3B5D4600231A468DF86F3019460C93E8
S11352400793637804F1010808F10108A3F1200031
S1135250582800F24586DFE810F0F30343064306BE
S1135260FC0343064306430643064306430659002C
S1135270040443066600D0034306EC03BC05BC05E6
S1135280BC05BC05BC05BC05BC05BC05BC0543068A
S113529043064306430643064306430643064306C2
S11352A04306E205F7044306F704430643064306B0
S11352B043064205430643064A054306430643069E
S11352C043064306740543064306CD0543064306D9
S11352D04306430643064306430643064306430682
S11352E01D060E06F704F704F70415060E0643061A
S11352F04306A3044306A805AE046D000A0443064E
S11353001204430635044306430670040E9C2368C6
S113531018460C932346002803F104030E9306DA7F
S11353200C9B5B420C93079B43F00403079398F890
S1135330003089E7AB460E9A00270798302178237E
S1135340BB4514688DF8701002F104024FF000059B
S11353508DF871308DF86F7040F00201C0F23D8617
S113536020F0800141F00201079154EA05010E92F8
S11353701193AD4800F0318130AE230943EA05733F
S1135380290904F00F020D461C46835C06F8013D12
S113539054EA0503F1D130AB9B1B0D930D9B5B4588
S11353A0B8BF5B4608930023139317B1089B0133DE
S11353B00893079B13F002030F9302D0089B023358
S11353C00893079B13F08403109340F018810C9BFF
S11353D0089A9D1A002D40F31281102D2599249AC4
S11353E0924F27DD189648461024B946099E2F4649
S11353F00A9D04E0103F102F00F1080016DD013271
S11354008A4B1031072A2591249280E81800F1DD97
S113541023AA3146284606F0CFFE002840F0F88043
S1135420103F102F30A82599249AE8DC3D464F46BA
S11354308146189E01326C18072A25942492C9F8D3
S11354400070C9F8045000F3D0809DF86F7009F122
S1135450080977B1249B013401330DF16F01012256
S1135460072B2594249389E8060000F3208209F190
S113547008090F9B6BB1249B023401331CA902223F
S1135480072B2594249389E8060000F31C8209F174
S11354900809109B802B00F02C810D9BC3EB0B079C
S11354A0002F33DD624A102F249B0F9222DD224607
S11354B04FF0100B0A9D099C04E0103F102F09F1D6
S11354C0080916DD01331032072B2592249389E84D
S11354D0000CF2DD23AA2146284606F06DFE0028C2
S11354E040F09680103F102F0DF1C009259A249B9F
S11354F0E8DC144601330F9A3C44072B259424938B
S113550089E8840000F3C78109F10809079BDA05DB
S113551000F19080249B0D9901330C44072B2594B2
S1135520C9F80060C9F80410249300F3E28109F17A
S11355300809079B590736D50C9B089A9D1A002D1C
S113554031DD102D249B394F22DD22461026DDF853
S113555028B0099C04E0103D102D09F1080916DD5E
S1135560013332491032072B2592249389E84200F3
S1135570F1DD23AA2146584606F01EFE002847D135
S1135580103D102D0DF1C009259A249BE8DC14462A
S113559001332C44072B25942493C9F80070C9F8CF
S11355A0045000F392840B9B0C9A08998A42ACBF76
S11355B09B185B180B93002C40F059810023249313
S11355C00DF1C0090DE60027BB458DF86F70C0F2E0
S11355D00E85079B23F080030793BBF1000F00F0B7
S11355E06C84002400250027C6E623AA09990A989A
S11355F006F0E2FD60B99DF86F700DF1C009259CBD
S113560027E7259B23B10A9823AA099906F0D4FD1C
S1135610099B9B8913F0400F0B9B18BF4FF0FF337E
S1135620184641B0BDE8F08FA0DA0000C0DA0000EF
S11356306CDA0000119B652B40F39F801498159938
S11356400022002307F084FC002800F06381249BDF
S1135650AE49013301340122072B2594249389E8B0
S1135660060000F3538409F108091D9B129A934222
S113567003DB079BDB077FF55CAF249B16990133A3
S1135680179A0C44072B2594C9F80020C9F8041074
S1135690249300F3E58609F10809129B5D1E002D91
S11356A07FF747AF9A4A102D249B0F9240F317813E
S11356B010260A9FDDF824B005E009F10809103D21
S11356C0102D40F30C8101331034072B25942493BF
S11356D0C9F800A0C9F80460EFDD23AA594638468A
S11356E006F06AFD002893D10DF1C009259C249B86
S11356F0E5E70C9B089A9F1A002F7FF7CEAE844AE9
S1135700102F249B0F922BDD4A462146B9461025C3
S113571037460A9C099E06E0A9F11009B9F1100F59
S113572002F1080218DD01331031072B259124936F
S1135730C2F800A05560EFDD23AA3146204606F0EA
S11357403BFD00287FF464AFA9F11009B9F1100FF3
S113575030AA2599249BE6DC3E460C464F469146EA
S113576001330F9A3C44072B2594249389E8840041
S113577000F32B8509F108098FE6129B249D012B68
S113578004F1010405F1010540F3E8840123072D28
S11357902594C9F800602495C9F8043000F3F9840D
S11357A009F10809169A0135179B1444072D25940D
S11357B02495C9F80030C9F8042000F3F88409F1ED
S11357C00809002314981599002207F0C1FB129BC5
S11357D0002800F0EA805E1E002E40F3F5804C4B5A
S11357E0102E0F932CDDCDF834801027B046DDF851
S11357F028B0099E06E0A8F11008B8F1100F09F1CD
S113580008091ADD01351034072D25942495C9F8AB
S113581000A0C9F80470EEDD23AA3146584606F00C
S1135820CBFC00287FF4F4AEA8F11008B8F1100FF7
S11358300DF1C009259C249DE4DC4646DDF8348046
S113584001350F9B3444072D2594249589E848009D
S113585040F3B88023AA09990A9806F0ADFC002801
S11358607FF4D6AE259C249D0DF1C009ACE023AA9B
S113587009990A9806F0A0FC00283FF49FAEC7E6F9
S113588023AA09990A9806F097FC00287FF4C0AE71
S11358900DF1C009C4E423AA09990A9806F08CFC06
S11358A000287FF4B5AE0DF1C009259C2EE623AA8D
S11358B009990A9806F080FC00287FF4A9AE0DF13E
S11358C0C009259CD5E523AA09990A9806F074FC19
S11358D000287FF49DAE0DF1C009259CD9E5013364
S11358E00F9A2C44072B2594249389E824007FF7EE
S11358F01EAE23AA09990A9806F05EFC00287FF4DC
S113590087AE259C0DF1C00913E600BFBCDA000088
S11359106CDA00001D9D002D40F30E83139B129A38
S11359209342A8BF1346002B1D460DDD249B2C4437
S11359300133072B2594C9F80060C9F80450249357
S113594000F31A8609F10809139B002DA8BF5B1BFD
S1135950002B1D4640F3A083B94A102D249B0F92BF
S113596040F3448522461027DDF828B0099C05E061
S113597009F10809103D102D40F337850133103229
S1135980072B25922493C9F800A0C9F80470EFDD11
S113599023AA2146584606F00FFC00287FF438AEAF
S11359A00DF1C009259A249BE4E7013B013501363A
S11359B01C44072DC9F8006024952594C9F80430C7
S11359C03FF748AF09F10809199A013514441FAB90
S11359D0072D25942495C9F80420C9F800307FF7D1
S11359E0A6AD23AA09990A9806F0E6FB00287FF4DD
S11359F00FAE0DF1C009259C9BE598F8003008F125
S1135A0001042A2B00F02E87A3F13000092898BF47
S1135A10002500F2B28614F8013B05EB850500EB86
S1135A204505A3F130000928F5D945EAE575A046F6
S1135A300CE4079B43F08003079398F8003003E4D9
S1135A4098F8003000297FF4FFAB01222021FFF7F2
S1135A50FBBB079B43F00103079398F80030FFF763
S1135A60F3BB98F8003001222B21FFF7EDBB079B15
S1135A7043F02003079398F80030FFF7E5BB0E9A34
S1135A80AB461668002511938DF86F50141D002E37
S1135A9000F0F885BBF1000FC0F244855A46294650
S1135AA03046FEF7A9FC002800F02E86AB46831B87
S1135AB00D9323EAE3730E940893CDF84CB09DF84C
S1135AC06F7072E41193AB46002A40F0F386079A94
S1135AD012F0200300F043810E9C0027073424F0C9
S1135AE0070303F10801BB450E91D3E900458DF886
S1135AF06F70C0F2C18222F08003079354EA050359
S1135B0000F04881002D08BF0A2CC0F0488130AE57
S1135B10204629460A220023FDF7B6F8303206F85B
S1135B20012D2046294600230A22FDF7ADF804463C
S1135B300D4654EA0503EBD12DE41193AB46002A3C
S1135B4040F0B486079B3F489D0640F15D810E9C62
S1135B50073424F0070303F108020E92D3E9004549
S1135B60079A12F0010700F0468254EA05033FF455
S1135B702AAD9DF8442000278DF87120079A302320
S1135B80BB458DF870308DF86F7042F00203C0F29F
S1135B90A58522F0800343F002030793FFF7ECBBD3
S1135BA098F800306C2B00F05184079840F01000F6
S1135BB00790FFF749BB1193AB46002A40F07E865D
S1135BC0079A12F0200300F0A0800E9C00270734EF
S1135BD024F0070303F10801BB450E91D3E9004506
S1135BE08DF86F700BDB22F08003079354EA0503F2
S1135BF006D1BBF1000F00F0B18500240025002779
S1135C0030AEE20842EA4572E90804F007030D46A3
S1135C101446303354EA050206F8013DF1D1079ADF
S1135C20D1077FF5B8AB302B3FF4B5AB3022731EF0
S1135C3006F8012C30AAD21A0D921E46FFF7AEBB0D
S1135C406CDA0000A0DA00001193AB46002A40F0A1
S1135C502186079B0E9C1A0704F1070440F16C830C
S1135C6024F0070303F108020E921A685B68149289
S1135C701593159B149D23F00044284621464FF0AC
S1135C80FF32A94B07F096F9002840F0CD82284650
S1135C9021464FF0FF32A44B07F06EF9002840F084
S1135CA0C382149815990022002307F05BF9002899
S1135CB040F00E859DF86F7007999C4E21F080018D
S1135CC09B4B0791119903224FF0000B089247292F
S1135CD0D8BF1E460D92CDF84CB0FFF766BB079BAC
